:020000040800F2
:10000000F0050020010100089B1F0008731D000877
:10001000991F000845060008892400080000000018
:10002000000000000000000000000000FB1F0008AE
:100030004706000800000000F91F00082D200008F6
:100040001B0100081B0100081B0100081B01000820
:100050001B0100081B0100081B0100081B01000810
:100060001B0100081B0100081B0100081B01000800
:100070001B0100081B0100081B0100081B010008F0
:100080001B0100081B0100081B0100081B010008E0
:100090001B0100081B0100081B0100081B010008D0
:1000A0001B0100081B0100081B0100081B010008C0
:1000B000752000081B0100081B0100081B01000837
:1000C0001B0100081B0100081B0100081B010008A0
:1000D0001B0100087D2400081B0100081B0100080B
:1000E0001B0100081B0100081B010008DFF80CD0F1
:1000F00000F096FA00480047C9240008F0050020E7
:100100000648804706480047FEE7FEE7FEE7FEE7B1
:10011000FEE7FEE7FEE7FEE7FEE7FEE773200008E6
:10012000ED000008202A04DB203A21FA02F0002129
:10013000704721FA02F3D040C2F1200291400843F7
:1001400019467047D2B201E000F8012B491EFBD2DC
:1001500070470022F6E710B513460A4604461946D2
:10016000FFF7F0FF204610BD2DE9FE4F804681EAE3
:100170000300C00F0C46009021F0004123F0004521
:10018000B8EB0200A94105D24046214690461C46E4
:100190000B46024623F00040104347D0270DC7F31B
:1001A0000A00C3F30A510290401A019040286BDA0A
:1001B000C3F3130040F4801B0098924620B1002343
:1001C000D2EB030A63EB0B0B01985946C0F14002D6
:1001D000504600F0A7F906460D4650465946019A8A
:1001E00000F0AFF910EB08006141002487EA1152DA
:1001F00084EAE7731A4340D0009A62B3019A012A55
:100200004FEA075215DC001B61EB02014FF0004280
:1002100002EA0752CDE90042001C41F58011324646
:100220002B4600F0AFF903B0BDE8F08F4046214601
:10023000F9E7001B61EB0201001C41F58013001877
:100240005B412018A2F5001747EB030140EAD57087
:10025000B6196D4111E06D084FEA360645EAC075E2
:100260004FEA0752001B61EB0201001C41F58011AF
:1002700049084FEA30000019514132462B4603B07D
:10028000BDE8F04F00F06FB9009801224000002354
:10029000D0EB020263EBE073009821464FEAE07472
:1002A000B8EB000061EB0401E9E783F000435BE792
:1002B00081F0004158E72DE9FE4F81EA030404F084
:1002C000004421F0004100944FF0000B23F0004364
:1002D00050EA01045ED052EA03045BD0C3F30A542F
:1002E000C1F30A552C44A4F2F3340194A0FB025448
:1002F000C1F3130141F48011C3F3130343F48013DA
:1003000001FB024400FB034E840A970A44EA81542D
:1003100047EA8357A4FB076802958D0A05FB07850A
:100320004FEA932C04FB0C542705029D4FEA065814
:1003300047EA1637B5EB08056EEB070C870E920EF1
:1003400047EA811742EA8312A7FB0201B6EB0B01D1
:1003500064EB00042B0D43EA0C335E1844EB1C5095
:10036000DA465146E7FB0201C5F313044FEA0B33AB
:1003700043EA14534FEA0432019C43EA0603A4F112
:100380000C040294009CCDE900B400F0FBF803B02B
:10039000BDE8F08F00200146F9E72DE9F04D81EA34
:1003A000030404F0004B21F0004514464FF0000A0E
:1003B00023F0004150EA050220D054EA01021DD08A
:1003C000C5F30A570246C5F31303C1F31300C1F383
:1003D0000A5640F4801543F48013A7EB0608101B5F
:1003E000D64608F2FD3873EB050002D308F1010888
:1003F00001E092185B41B8F1000F03DA00200146DA
:10040000BDE8F08D00204FF48011064684460EE0D2
:10041000171B73EB050705D3121B63EB050306439C
:100420004CEA010C49084FEA300092185B4150EA4F
:100430000107EDD152EA030012D082EA040083EAF8
:100440000501084305D0101BAB4106D20122002351
:1004500006E000224FF0004302E06FF0010253106B
:100460001AEB06004CEB085110EB0A0041EB0B01B4
:10047000BDE8F04D00F077B80EB5C10F80EAE0702E
:100480000844CA07002140F233438DE80E000A46B3
:100490000B4600F077F803B000BD0EB540F23341D3
:1004A00002910021CDE900110A460B4600F06AF8DE
:1004B00003B000BD70B5C1F30A5201F0004500243D
:1004C000C1F3130140F2FF3341F480119A4201DA83
:1004D000002070BD40F233439A42A2F2334203DC63
:1004E0005242FFF71FFE00E090402C43F1D0404203
:1004F00070BDC1F30A5210B5C1F3130140F2FF33CE
:1005000041F480119A4201DA002010BD40F23343D9
:100510009A42A2F2334203DC5242FFF703FE10BDBF
:10052000904010BD202A04DB203A00FA02F100209E
:1005300070479140C2F1200320FA03F31943904021
:100540007047202A06DBCB17203A41FA02F043EA33
:10055000E07306E041FA02F3D040C2F1200291407C
:1005600008431946704710B5141E73F1000408DAE9
:10057000401C41F1000192185B411A4301D120F067
:10058000010010BD2DE9F04D92469B4611B1B1FA24
:1005900081F202E0B0FA80F220329046FFF7C2FF0B
:1005A00004460F4640EA0A0041EA0B0153465A4608
:1005B000084313D0114653EA010019D0C8F1400294
:1005C0005046FFF7AFFD05460E4650465946424697
:1005D000FFF7A8FF084305D0012004E02046394674
:1005E000BDE8F08D0020054346EAE0762C43374312
:1005F0000A986305E40AA0EB08000022FD0A44EA19
:1006000047540A3002D500200146E9E701051019D8
:100610006941DDE9084500196941BDE8F04DA2E7EF
:10062000064C074D06E0E06840F0010394E807003F
:1006300098471034AC42F6D3FFF75CFD68250008FC
:1006400088250008FEE770477047000010B590F855
:1006500021100024022903D00421816301243DE0FC
:1006600001680A6822F00E020A6001680A6822F036
:1006700001020A601A4A0168914201D1012121E078
:10068000174A1432914201D110211BE0144A28323A
:10069000914201D1891515E0114A3C32914201D1B4
:1006A00089140FE00E4A5032914202D14FF480314A
:1006B00008E00B4A6432914202D14FF4801101E00C
:1006C0004FF08071064A083A5160012180F82110EC
:1006D000002180F82010416B01B18847204610BDF1
:1006E0000800024070B5044600F0FEF80546601CA4
:1006F00002D004480078044400F0F6F8401BA04201
:10070000FAD370BD180000202DE9F84FDFF8B8913A
:10071000002409F1040A0AF1040B23460F270BF108
:10072000040EC9E00125A5402A40AA427DD1674EAA
:10073000D1F804C0ACEB0608B44532D014DCBCF1EF
:10074000030F3AD009DCBCF1000F2AD0BCF1010F35
:100750001CD0BCF1020F31D11DE0BCF1110F17D03C
:10076000BCF1120F2AD119E0B8F5881F19D006DCA8
:10077000B8F5803F15D0B8F5801F1FD111E0B8F54E
:10078000001F0ED0B8F5041F18D10AE0CB6815E0A1
:10079000CB681B1D12E0CB6808330FE0CB680C332D
:1007A0000CE08B682BB1012B4FF0080303D045619F
:1007B00004E0042302E0056100E00023FF2A01D8E1
:1007C000064601E000F104064FEA840501D9A5F1CF
:1007D0002005D6F8008007FA05FC28EA0C0803FA81
:1007E00005F548EA0508C6F800804D68ED0062D5B9
:1007F000374DAE6946F00106AE61AD6924F00306DF
:1008000005F001050095334D06EB050CDCF80850AA
:10081000A607360F07FA06F825EA0805DFF8B880BC
:10082000404503D14FF0000817E044E0DFF8AC800A
:10083000404502D14FF001080FE0DFF8A4804045A9
:1008400002D14FF0020808E0DFF89880404502D15D
:100850004FF0030801E04FF0040808FA06F848EAF0
:100860000508CCF808804D68D9F80060ED034D46C6
:1008700001D5164300E096432E604D68DAF800601B
:10088000AD03554601D5164300E096432E604D68F2
:10089000DBF80060ED025D4601D5164300E09643AB
:1008A0002E604D68DEF80060AD02754601D5164336
:1008B00000E096432E60641C0D682A46E5407FF4F4
:1008C00031AFBDE8F88F00000004014000001110B6
:1008D000001002400000014000080140000C0140EF
:1008E000001001400014014001488068704700007A
:1008F0001800002070B5040025D094F83D000025B4
:1009000020B984F83C50204600F0B8F8242084F840
:100910003D002068016821F0010101602068016844
:1009200041F4004101602068016821F40041016048
:1009300000F00AFA4D4A6168914201D84C4900E042
:100940004C49884201D2012070BD4B492368B0FB5D
:10095000F1F15E6826F03F060E435E6063689342E5
:1009600006D94FF4967359434FF47A73B1FBF3F100
:100970002368491C1E6A26F03F06314319626168EC
:10098000914210D84900401EB0FBF1F2521CC2F354
:100990000B02042A01D2042022E0B0FBF1F0401C3B
:1009A000C0F30B001CE0A268F2B301EBC10303EB40
:1009B0000116431EB3FBF6F35B1C43F480431B0597
:1009C00049D092B301EBC10202EB0111401EB0FB12
:1009D000F1F0401CC0F30B0040F4804040F40040B4
:1009E0002168CA694CF6FF739A431043C861D4E981
:1009F000071001432068026822F0C0021143016021
:100A0000D4E9030101432068826848F2FF339A4326
:100A100011438160D4E9050108432168CA6822F0C6
:100A2000FF021043C86001E00EE016E02068016894
:100A300041F0010101602564202084F83D00256318
:100A400084F83E50002070BD01EB4106431EB3FB0D
:100A5000F6F35B1CB3E70120C2E701EB4101401E46
:100A6000B0FBF1F0401CC0F30B00B7E7A08601001B
:100A700080841E0000093D0040420F0010B586B082
:100A8000002100910191029103910068134988426D
:100A900022D1134CA06940F00800A061A06969460A
:100AA00000F0080004904FF4407000901220019074
:100AB000032003900B48FFF727FE0B48416841F0E5
:100AC000E06141F002014160E06940F40010E06142
:100AD000E06900F40010049006B010BD005400401E
:100AE00000100240000C01400000014002488168F3
:100AF000027811448160704718000020074810B543
:100B0000016841F010010160032000F075F8002039
:100B100000F006F800F024F8002010BD002002408C
:100B200070B50D4D04464FF47A712878B1FBF0F0A2
:100B30000A490968B1FBF0F000F0ECFA48B9102C52
:100B400007D200222146501E00F036F800206C60CB
:100B500070BD012070BD000018000020240000209E
:100B60000C4808B5816941F001018161816901F09A
:100B700001010091C16941F08051C161C06900F07B
:100B8000805000900448416821F0E06141F08061AC
:100B9000416008BD0010024000000140002809DB50
:100BA00000F01F02012191404009800000F1E02087
:100BB000C0F8001170470000F0B40E4B1B680C46E3
:100BC000C3F30223C3F10705042D00D90425191D21
:100BD000072901D2002300E0DB1E012606FA05F1F9
:100BE000491E214099409E40761E16403143F0BC7C
:100BF00001F04BBC0CED00E0064900F0070208686C
:100C00004FF6FF03184040EA0220034A10430860F1
:100C1000704700000CED00E00000FA052DE9F047F8
:100C20000F46050061D0434E306800F00700B8421F
:100C300009D2306820F0070038433060306800F097
:100C40000700B84251D128683B4C810712D54007B4
:100C500003D5606840F4E06060602878000703D541
:100C6000606840F4605060606068A96820F0F0003F
:100C7000084360602878C00728D06868012810D031
:100C80002168022810D0890700292EDA616821F036
:100C9000030101436160FFF727FE804641F2883976
:100CA0000DE021688903EFE78901EDE7FFF71CFEFE
:100CB000A0EB0801494502D90320BDE8F087606830
:100CC000696800F00C00B0EB810FEFD1306800F0E4
:100CD0000700B8420BD9306820F007003843306075
:100CE000306800F00700B84201D00120E5E728781D
:100CF000400705D56068E96820F4E060084360605B
:100D00002878000706D56068296920F4605040EA19
:100D1000C100606000F038F86168084AC1F303114F
:100D2000515CC8400649086006480068FFF7F8FEB5
:100D30000020C2E7002002400010024050250008B9
:100D4000240000201C000020044805490068496870
:100D5000044AC1F30221515CC840704724000020BE
:100D600000100240602500080448054900684968F1
:100D7000044AC1F3C221515CC840704724000020DE
:100D8000001002406025000812A185B00FC98DE84F
:100D90000F0014A0144A006804905168134801F031
:100DA0000C03042B10D0082B0ED1C1F38343C903CD
:100DB0001DF803000AD5516804AAC1F34041515CF3
:100DC0000A4A5043B0FBF1F005B070470849484368
:100DD000FAE7000002030405060708090A0B0C0DD8
:100DE0000E0F1010010200000010024000127A00E5
:100DF00000093D002DE9F84F040070D02078C04D67
:100E0000C00749D06868C0F38100012807D068682E
:100E1000C0F38100022809D16868C00306D528689C
:100E2000800339D560680028E7D035E06068B0F508
:100E3000803F0BD010B1B0F5A02F11D0286820F45E
:100E400080302860286820F4802002E0286840F480
:100E500080302860606890B1FFF746FD06460AE0E2
:100E6000286840F480202860F0E700BFFFF73CFDD1
:100E7000801B642873D828688003F7D50CE0FFF73F
:100E800033FD064605E000BFFFF72EFD801B6428FA
:100E9000F0D828688003F7D420789A4E80074FF066
:100EA00001094FF0000839D5686810F00C0F07D021
:100EB0006868C0F38100022809D16868C00306D4BD
:100EC0002868800714D52069012808D110E020691E
:100ED000B0B1C6F80090FFF707FD074605E00AE14C
:100EE000FFF702FDC01B0228C4D828688007F7D589
:100EF0002868616920F0F80040EAC10028600DE030
:100F0000C6F80080FFF7F0FC074604E0FFF7ECFCB2
:100F1000C01B022823D828688007F7D42078000750
:100F20002CD57948A169D9B1C0F80090FFF7DCFC55
:100F3000074604E0FFF7D8FCC01B02280FD8686AF8
:100F40008007F7D571484FF4FA510068B0FBF1F013
:100F5000009000BF0098411E0091FAD20EE080E0A0
:100F6000C0F80080FFF7C0FC074604E0FFF7BCFCB8
:100F7000C01B022875D8686A8007F7D4207840071C
:100F800060D5E8690027C00008D4E86940F08050C7
:100F9000E861E869012700F0805000905C48016832
:100FA000C90513D40168834641F480710160FFF7DD
:100FB0009BFC824606E000BFFFF796FCA0EB0A0010
:100FC00064284ED8DBF80000C005F5D5E06801289C
:100FD0000AD008B1052813D0286A20F00100286241
:100FE000286A20F0040002E0286A40F0010028622C
:100FF000E06841F2883B98B1FFF776FC82460BE04F
:10100000286A40F004002862EEE700BFFFF76CFC9E
:10101000A0EB0A0159455AD8286A8007F6D50CE09A
:10102000FFF762FC824605E0FFF75EFCA0EB0A01D9
:1010300059454CD8286A8007F6D41FB1E86920F0DA
:101040008050E861E06988B36968C1F381010229D1
:1010500044D00228C6F8608004D0FFF745FC04465F
:1010600038E034E0FFF740FC074604E0FFF73CFCC3
:10107000C01B02282BD828688001F7D4206AB0F55D
:10108000803F05D16868A16820F40030084368609B
:10109000D4E908010843696821F4741108436860C1
:1010A000C6F86090FFF720FC044606E025E000BF8C
:1010B000FFF71AFC001B022809D828688001F7D521
:1010C0001BE000BFFFF710FC001B022802D9032021
:1010D000BDE8F88F28688001F4D40EE00128F7D02D
:1010E0006868226A00F48031914204D1616A00F498
:1010F0007010884201D00120EAE70020E8E70000F4
:1011000000100240000042428004424224000020BD
:101110000070004010B5401EB0F1807F01D3012067
:1011200010BD4FF0E02460610F21601701F0ADF9B0
:101130000020A06107202061002010BD704770478B
:1011400010B590F83C20012A22D0012280F83C20E2
:10115000CA688C6822F4407222434C6822F4806290
:1011600022430C6822F4006222430C6922F480526C
:1011700022434C6922F400522243C969002322F41D
:1011800080420A4301684A6480F83C30002010BD68
:10119000022010BD70B590F83C20012A26D0012411
:1011A00080F83C40022280F83D2003685A689D6820
:1011B00022F070060A6832435A600D4B02689A4268
:1011C00008D0B2F1804F05D00A4B9A4202D00A4BA8
:1011D0009A4204D1496825F080031943916080F850
:1011E0003D40002180F83C10084670BD022070BDD3
:1011F000002C0140000400400008004010B504002D
:1012000003D094F83D0010B107E0012010BD00208C
:1012100084F83C00204600F01FF8022084F83D00CE
:10122000211D206800F02CFF012084F8460084F87E
:101230003E0084F83F0084F8400084F8410084F8C0
:10124000420084F8430084F8440084F8450084F8A0
:101250003D00002010BD000008B500680649884226
:1012600008D10648816941F400618161806900F418
:101270000060009008BD0000002C014000100240FA
:1012800090F83D10012901D001207047022180F81B
:101290003D100168CA6842F00102CA6000680B494B
:1012A000884208D0B0F1804F05D00949884202D069
:1012B0000849884204D1816801F00701062903D05A
:1012C000016841F00101016000207047002C0140DD
:1012D000000400400008004070B5044690F83C004F
:1012E000012817D0012584F83C50022084F83D00E5
:1012F0002068826822F0770222F47F4282600868C8
:10130000502830D00DDC20284DD005DC98B31028B3
:101310003BD148E0022070BD302844D0402834D171
:1013200039E0602828D0702806D0B0F5805F2CD036
:10133000B0F5005F29D10AE0CB68D1E9012120682E
:1013400000F0E1FE2068816841F0770109E0CB6898
:10135000D1E90121206800F0D6FE2068816841F4BF
:101360008041816011E0CA684968206800F080FF10
:101370005021206807E016E0CA684968206800F03C
:1013800088FF6021206800F0C8FE84F83D500020EE
:1013900084F83C0070BDCA684968206800F068FFA6
:1013A00040212068EFE7226801461046EBE77047CE
:1013B00070B50446006801694FF00005C94389070C
:1013C00015D4C168C943890711D4E91E0161012000
:1013D0002077206880698007204602D0FFF7E7FF6A
:1013E00004E000F0E5F8204600F0BDF9257720681C
:1013F0000169C943490717D4C168C943490713D4D0
:101400006FF004010161022020772068806910F4E8
:10141000407F204602D0FFF7CAFF04E000F0C8F882
:10142000204600F0A0F9257720680169C943090723
:1014300016D4C168C943090712D46FF008010161CD
:10144000042020772068C0698007204602D0FFF77B
:10145000AEFF04E000F0ACF8204600F084F92577F8
:1014600020680169C943C90617D4C168C943C906C0
:1014700013D46FF010010161082020772068C06943
:1014800010F4407F204602D0FFF791FF04E000F007
:101490008FF8204600F067F9257720680169C94375
:1014A000C90708D1C168C943C90704D1891E0161B0
:1014B000204600F0A7F920680169C943090609D44C
:1014C000C168C943090605D46FF080010161204657
:1014D000FFF734FE20680169C943490609D4C16891
:1014E000C943490605D46FF040010161204600F070
:1014F00055FA20680169C94389060BD4C168C943FC
:10150000890607D46FF0200101612046BDE87040D4
:10151000FFF715BE70BD000000B585B00021009139
:1015200001910291039100680B49884212D10B4846
:10153000816941F0040181618069694600F004001D
:1015400004904FF4407000900220019003900448F2
:10155000FFF7DAF805B000BD002C01400010024092
:101560000008014010B5044690F83C0001280AD05C
:10157000012084F83C0042B1042A0AD0082A0CD089
:101580000C2A11D10DE0022010BD206800F0CEFD24
:101590000AE0206800F0F2FD06E0206800F01AFE84
:1015A00002E0206800F042FE002084F83C0010BDFC
:1015B000704710B5040003D094F83D0010B107E067
:1015C000012010BD002084F83C00204600F01EF8E9
:1015D000022084F83D00211D206800F051FD01200B
:1015E00084F8460084F83E0084F83F0084F8400008
:1015F00084F8410084F8420084F8430084F84400F1
:1016000084F8450084F83D00002010BD08B500684E
:10161000B0F1804F12D10A48C16941F00101C161A6
:10162000C069002200F00100009011461C20FFF765
:10163000C3FABDE808401C20FFF7B0BA08BD00009F
:101640000010024070B5044690F83C000D46012899
:101650000AD0012084F83C0042B1042A18D0082A9C
:101660002AD00C2A4DD139E0022070BD206800F04C
:101670005DFD2068816941F0080181612068816910
:1016800021F004018161206881692A69114311E018
:10169000206800F073FD2068816941F40061816178
:1016A0002068816921F480618161206881692A69EB
:1016B00041EA0221816124E0206800F08BFD20686E
:1016C000C16941F00801C1612068C16921F00401CC
:1016D000C1612068C1692A69114311E0206800F0E6
:1016E000A5FD2068C16941F40061C1612068C1693C
:1016F00021F48061C1612068C1692A6941EA02213F
:10170000C161002084F83C0070BD10B5040003D016
:1017100094F83D0010B107E0012010BD002084F8CE
:101720003C00204600F01EF8022084F83D00211DF8
:10173000206800F0A5FC012084F8460084F83E00F3
:1017400084F83F0084F8400084F8410084F84200A7
:1017500084F8430084F8440084F8450084F83D0090
:10176000002010BD7047704710B50446022249B1F1
:1017700004290ED0082913D094F84100012816D06E
:10178000012010BD94F83E000128F9D184F83E20D4
:101790000FE094F83F000128F2D184F83F2008E0E0
:1017A00094F840000128EBD184F8402001E084F84F
:1017B00041200122206800F099FC0F4920688842EE
:1017C00003D1426C42F4004242642068884208D04F
:1017D000B0F1804F05D00949884202D008498842BB
:1017E00004D1816801F00701062903D0016841F0A6
:1017F00001010160002010BD002C014000040040E8
:10180000000800402DE9F84F5C49006809688842EB
:101810007ED1DFF86CB15B4CBBF804006083217FA4
:10182000401A45B2A5772846FEF726FE0646564AD8
:10183000564B0091FEF73FFD07468846606AFEF76B
:101840001BFE3A464346FEF78FFCFEF733FE814609
:10185000606294F91800281AFEF70EFE4A4A4B4BB4
:10186000FEF79BFDFEF726FEA062FEF705FED4E91B
:101870000423FEF720FD074688464846FEF7FCFD98
:10188000D4E90223FEF717FDD4E9002381468A46F6
:1018900030460099FEF70FFD4A465346FEF764FCBA
:1018A0003A464346FEF760FC064639480F46008834
:1018B000FEF7F3FD32463B46FEF7F7FCFEF719FE56
:1018C00020842576334CBBF806006083217F401AC4
:1018D00045B2A5772846FEF7CFFD8B4606462A4A35
:1018E0002A4BFEF7E8FC07468846606AFEF7C4FD0F
:1018F0003A464346FEF738FCFEF7DCFD07466062D9
:1019000094F91800281AFEF7B7FD1F4A1F4B00E094
:1019100031E0FEF742FDFEF7CDFDA062FEF7ACFD23
:10192000D4E90423FEF7C7FC81468A463846FEF711
:10193000A3FDD4E90223FEF7BEFCD4E900238046D0
:101940000F4630465946FEF7B6FC42463B46FEF788
:101950000BFC4A465346FEF707FC06460E480F4668
:101960000088FEF79AFD32463B46FEF7FDFBFEF788
:10197000C0FD20842576BDE8F88F000024010020FA
:1019800000000020280000207B14AE47E17A943F3D
:1019900014000020580000201600002070477047F7
:1019A00070B5026804461068D168536910F00F0FD3
:1019B00052D003F0010501F490762E435FD0C207A8
:1019C00005D0CA0503D5E26B42F00102E26342078B
:1019D00005D5DA0703D0E26B42F00202E263820728
:1019E00005D5DA0703D0E26B42F00402E263020796
:1019F00007D501F020022A4303D0E26B42F008022F
:101A0000E263E26B002A33D0800604D5880602D553
:101A1000204600F091FC20684069E16BC0F3801023
:101A2000090700D428B3204600F078FC20684169FB
:101A300049061AD5416921F040014161606BA0B1AE
:101A40002D494163606BFEF701FE002810D0606BEA
:101A5000416BBDE870400847830610D58B060ED554
:101A60002046BDE8704000F067BC2046FFF797FFB6
:101A700070BD2046FFF793FF0020E06370BD0306B2
:101A80002BD50B0629D594F839002128F6D1A0686A
:101A9000B0F5805F01D12069B0B1206A411C21629C
:101AA000216800784860E08C401E0004000CE0844F
:101AB000E4D12068C16821F08001C1602068C1685C
:101AC00041F04001C16070BD206A0088C0F3080089
:101AD0005060206A801C2062E5E74006F3D5480686
:101AE000F1D5D168204621F04001D160202184F851
:101AF000391000F03DF970BD0D23000870B50400E9
:101B000004D094F83900002510B106E0012070BD22
:101B100084F83850204600F023F8242084F8390057
:101B20002068C16821F40051C160204600F04AFCE1
:101B30002068016921F4904101612068416921F028
:101B40002A0141612068C16841F40051C160E56328
:101B5000202084F8390084F83A00002070BD00008D
:101B600030B585B0002400940194029403942F4D65
:101B700003682F4802210322AB4231D1836943F429
:101B800080438361836903F480430493836943F052
:101B9000080383618069274D00F00800049040200D
:101BA000CDE90001039269462846FEF7ADFD80208D
:101BB000CDE90004694628460294FEF7A5FD1E48BB
:101BC000416841F0E06141F00401416000221146AA
:101BD0002520FEF7F1FF2520FEF7E0FF05B030BD20
:101BE000164DAB42FAD1C36943F40033C361C369F4
:101BF00003F400330493836943F004038361806931
:101C00000F4D00F0040004900420CDE90001039280
:101C100069462846FEF778FD0820CDE900046946AC
:101C200028460294FEF770FDD8E700000038014016
:101C300000100240000C0140000001400044004040
:101C40000008014090F83A30202B22D1F9B1F2B1CE
:101C500090F83830012B1CD081628285C28500212A
:101C6000C163222280F83A2080F838100168CA68DF
:101C700042F48072CA6001684A6942F001024A6116
:101C80000068C16841F02001C16000207047012058
:101C9000704702207047000030B400683149884224
:101CA0005DD1314800230121447800F10C027CB160
:101CB000012C13D0022C17D0032C1ED01146042C5B
:101CC000B1F801101FD0052C2DD0062C33D035E0F3
:101CD0008478FF2C32D14170147039E08178FF296B
:101CE0002CD25170022124E0847894700322427037
:101CF0000CB101702CE003702AE08178FF291DD21D
:101D0000D170042115E08378137105234370B2F874
:101D1000032049BA52BA1144FE22B1FBF2F302FB8E
:101D20001311816014E081788468A14206D1517159
:101D3000062141700CE08478FE2C01D04370DAE774
:101D40004370947149BA8180B2F8031049BAC180D6
:101D50000549012230BC891C0448FFF773BF30BC21
:101D60007047000000380140000000206C01002096
:101D70007047FEE7094808B5816941F004018161B7
:101D8000816901F004010091816941F008018161DC
:101D9000806900F00800009008BD000000100240BB
:101DA0000D4810B50B4901600C49416000214FF40A
:101DB00080428160C0E9031241618161C1610162B9
:101DC000FEF798FD002803D0BDE81040FEF73CBCAC
:101DD00010BD00000054004088000020A0860100D3
:101DE00010B596B000240F9410941194129413948B
:101DF0001C2168461494FEF7ACF9202107A8FEF7D1
:101E0000A8F92D482B4901600721C0E9011444F6C7
:101E10002061C0E903148021C0E90541FFF7EEF914
:101E200008B1FEF711FC4FF480500F900FA9224823
:101E3000FFF752FA08B1FEF707FC1F48FFF765FCF1
:101E400008B1FEF701FC139413A91B481494FFF783
:101E5000A1F908B1FEF7F8FB6020CDE90004029477
:101E60000394049405940022694613480694FFF7EE
:101E7000E9FB08B1FEF7E8FB042269460E48FFF7CC
:101E8000E1FB08B1FEF7E0FB0794089409944FF4D6
:101E900000500A94CDE90B4007A907480E94FFF7BC
:101EA0004FF908B1FEF7D0FB0348FFF735FB16B03A
:101EB00010BD0000002C0140DC00002010B58AB0ED
:101EC000002407941C2168460894FEF742F915483F
:101ED0004FF0804101600721C0E9011444F6206100
:101EE000C0E9031480218161FFF763FB08B1FEF7AD
:101EF000ABFB079407A90B480894FFF74BF908B10F
:101F0000FEF7A2FB00940194029400226946054862
:101F10000494FFF727FB002801D0FEF795FB0AB0D9
:101F200010BD0000240100200C4810B50A490160D2
:101F30004FF4E1314160002181600C22C160C0E9B1
:101F400004128161C161FFF7D9FD002803D0BDE80B
:101F50001040FEF779BB10BD003801406C01002035
:101F60000C4810B50A4901604FF4E131416000218D
:101F700081600C22C160C0E904128161C161FFF778
:101F8000BDFD002803D0BDE81040FEF75DBB10BDCD
:101F900000440040AC010020FEE7704710B5134834
:101FA000114A4FF03331C0E90012124A1049C0E91A
:101FB0000212C0E90412002101769F22416282834D
:101FC00040F2DC520284084C30304FF03333C0E929
:101FD0000034C0E90211C0E90411017641626021B8
:101FE0008183028410BD00003333C33F28000020EA
:101FF000FCA9F1D24D62503F7047704710B540F2D6
:10200000DC5401212246084600F056F928B9224640
:102010000221012000F050F908B1012400E0002461
:102020004FF47A70FEF75EFB204610BDFEF75EBDF2
:1020300010B590B028216846FEF78BF814210AA845
:10204000FEF787F802200090012004901020002461
:10205000059007946846FEF7CDFE0F20CDE90A04EF
:102060000C940D9400210AA80E94FEF7D7FD10B031
:1020700010BD70470148FFF79BB900002401002004
:10208000F0B50268164B174C174D4FF08047984239
:1020900005D0B84203D0A04201D0A84203D122F01B
:1020A00070064A683243984205D0B84203D0A04235
:1020B00001D0A84203D122F44074CA6822434C697B
:1020C00022F08002224302608A68C2620A68826249
:1020D000984201D10969016301214161F0BD00000D
:1020E000002C0140000400400008004010B501F041
:1020F0001F030121046A99408C430462016A9A40DB
:102100001143016210BD10B5846842EA032224F431
:102110007F440A432243826010BD826822F070022D
:102120000A4342F0070181607047000030B5026A3F
:1021300022F001020262026A4368846924F0730596
:102140000C682C4322F002058A682A430A4DA842F3
:102150000BD122F00805CA6823F440732A434D6965
:1021600022F004021D438B692B434360846149685C
:102170004163026230BD0000002C014030B5026AAC
:1021800022F010020262026A436884690D6824F436
:10219000E64444EA05248D6822F0200242EA051252
:1021A0000B4DA8420ED1CD6822F0800242EA051202
:1021B0004D6923F4406343EA85038D6922F04002B0
:1021C00043EA85034360846149688163026230BDEC
:1021D000002C014030B5026A22F480720262036A68
:1021E0004268C46923F4007324F073050C682C431F
:1021F0008D6843EA05230C4DA8420ED1CD6823F427
:10220000006343EA05234D6922F4405242EA051275
:102210008D6923F4806342EA05124260C461496813
:10222000C163036230BD0000002C014030B5026A7A
:1022300022F480520262046A4268C3690D6823F482
:10224000E64343EA05238D6824F4005444EA053448
:10225000064DA84204D14D6922F4804242EA85121B
:102260004260C36149680164046230BD002C0140D2
:1022700010B5036A046A24F001040462846924F03E
:10228000F00444EA021423F00A020A438461026261
:1022900010BD10B5036A23F0100303628369046A5A
:1022A00023F4704343EA023224F0A00343EA01110D
:1022B0008261016210BD000030B5012820D11148B3
:1022C000114D4FF4FA740368012907D0022917D180
:1022D00040F2DC5082420DD302460EE040F6C410BC
:1022E000824201D3024602E0A24200D822465A634B
:1022F0002A8004E0A24200D822469A636A80002025
:1023000030BD0000DC0000201400002010B5406A41
:102310000021C185C184FFF742FB10BD0168CA6876
:1023200022F49072CA6001684A6922F001024A618F
:10233000202180F83A10704710B590F83A10222901
:1023400001D0022010BD82684FF480539A4201D11F
:10235000016921B1816A9A421BD04AB10AE0026840
:10236000816A5268C2F308020A80816A891C08E007
:10237000026972B10268526802F07F020A70816AD3
:10238000491C8162C18D491E0904090CC18503D015
:1023900016E002685268F1E70168CA6822F020027C
:1023A000CA600168CA6822F48072CA6001684A691A
:1023B00022F001024A61202180F83A10FFF76CFCFC
:1023C000002010BD70B5044600680169E26821F480
:1023D0004051114301612169A068084361690843C4
:1023E0002168CA6841F20C639A430243CA602068BC
:1023F0004169A26921F44071114341611E4920687D
:10240000884202D1FEF7B0FC01E0FEF79DFC00EB34
:10241000C00101EB0012606864218000B2FBF0F3A0
:10242000B3FBF1F36FF018067343B2FBF0F5B2FBA8
:10243000F0F605EB8305322303EB0515B5FBF1F54B
:10244000B6FBF1F605F0F00505EB0615B2FBF0F66C
:10245000B2FBF0F0B0FBF1F06FF01802504306EB66
:10246000800003EB0010B0FBF1F0216800F00F00DA
:102470002844886070BD0000003801400148FFF723
:102480008FBA00006C010020FEE70907090E002842
:1024900004DB00F1E02080F80014704700F00F002A
:1024A00000F1E02080F8141D704702E008C8121FF8
:1024B00008C1002AFAD170477047002001E001C12D
:1024C000121F002AFBD17047FEF718FBFFF7B0FD83
:1024D000FFF750FCFFF764FCFFF782FCFFF724FDD9
:1024E000FFF73EFDFFF7EAFC1348FEF7C9FE0021A7
:1024F0001248FFF739F904211048FFF735F9012296
:102500000F491048FFF79EFBFFF748FDFFF776FDE8
:10251000FFF744FD0A4C0C4D0C4EA41E20780028F9
:10252000FCD001212A8C0846FFF7C6FE328C02211E
:102530000120FFF7C1FEF1E724010020DC000020AC
:10254000020000206C01002028000020580000201C
:102550000000000000000000010203040607080953
:10256000000000000102030488250008000000208C
:1025700028000000AA240008B02500082800002038
:10258000C8050000BA240008000000000000000098
:10259000000000000000000000000000000000003B
:1025A0000100000010000000000000000024F40002
:04000005080000ED02
:00000001FF
